:107E0000112494B714BE892F8D7011F0892FDFD003
:107E100085E08093810082E08093C00088E18093B8
:107E2000C10086E08093C20080E18093C4008EE0B0
:107E3000B8D0259A86E020E33CEF91E030938500AE
:107E40002093840096BBB09BFECF1D9AA8958150CD
:107E5000A9F786E592D0EE24FF24A3E0BA2ECC2425
:107E6000C394F5E0DF2E91D0813471F48ED0082FC9
:107E70009ED0023811F482E005C0013811F486E08A
:107E800001C083E07AD076C0823411F484E103C06B
:107E9000853419F485E093D06DC0853579F475D0BB
:107EA000E82EFF2472D0082F10E0102F00270E2993
:107EB0001F29000F111F7BD078015CC0863521F48B
:107EC00084E07DD080E0DECF843609F036C05DD01E
:107ED0005CD0182F5AD0082FC0E0D1E056D089933B
:107EE0001C17E1F764D0053409F4FFCFF701B7BEE2
:107EF000E89507B600FCFDCFA701A0E0B1E02C910A
:107F000030E011968C91119790E0982F8827822B62
:107F1000932B1296FA010C01C7BEE89511244E5F0F
:107F20005F4F1A1761F7F701D7BEE89507B600FC57
:107F3000FDCF81E187BFE8951DC0843769F425D066
:107F400024D0082F22D033D0E701FE018591EF0124
:107F500014D00150D1F70EC0853739F428D08EE106
:107F60000CD085E90AD081E18DCF813511F488E00C
:107F700018D01DD080E101D076CF982F8091C0001D
:107F800085FFFCCF9093C60008958091C00087FFC5
:107F9000FCCF8091C00084FD01C0A8958091C600EF
:107FA0000895E0E6F0E098E1908380830895EDDFA6
:107FB000803219F088E0F5DFFFCF84E1DECF1F9338
:107FC000182FE3DF1150E9F7F2DF1F910895282EF3
:0A7FD00080E0E7DFE0E0FF270994FE
:027FFE00020679
:0400000300007E007B
:00000001FF
