:101E000011248FE594E09EBF8DBF94B714BE892F37
:101E10008D7011F0892FD2D085E08EBD82E08BB914
:101E200088E18AB986E880BD80E189B98EE0B2D0C8
:101E3000BD9A96E020E33CEF54E040E23DBD2CBD6E
:101E400058BF08B602FEFDCF88B3842788BBA8958B
:101E50009150A1F786E593D0EE24FF24B3E0AB2E9A
:101E6000BB24B394A5E0DA2EF1E1CF2E8CD08134DF
:101E700071F489D0082F92D0023811F482E005C0A5
:101E8000013811F486E001C083E079D075C0823456
:101E900011F484E103C0853419F485E087D06CC067
:101EA000853579F470D0E82EFF246DD0082F10E02E
:101EB000102F00270E291F29000F111F6FD0780146
:101EC0005BC0863521F484E071D080E0DECF8436BB
:101ED00009F035C058D057D0182F55D0082FC0E082
:101EE000D1E051D089931C17E1F758D0053409F49B
:101EF000FFCFF701A7BEE89507B600FCFDCFA7010D
:101F0000A0E0B1E02C9130E011968C91119790E017
:101F1000982F8827822B932B1296FA010C01B7BEBB
:101F2000E89511244E5F5F4F1A1761F7F701D7BE8E
:101F3000E89507B600FCFDCFC7BEE8951DC0843705
:101F400069F421D020D0082F1ED028D0E701FE014F
:101F50008591EF0114D00150D1F70EC0853739F4C7
:101F60001DD08EE10CD083E90AD087E08ECF813579
:101F700011F488E00FD012D080E101D077CF5D9BC3
:101F8000FECF8CB908955F9BFECF5C9901C0A895E8
:101F90008CB1089598E191BD81BD0895F4DF803240
:101FA00019F088E0F7DFFFCF84E1E9CF1F93182F06
:101FB000EADF1150E9F7F2DF1F910895282E80E043
:081FC000E9DFE0E0FF270994CE
:021FFE000206D9
:0400000300001E00DB
:00000001FF
