:101E0000112494B714BE892F8D7011F0892FE0D062
:101E100085E08093810082E08093C00088E1809318
:101E2000C10086E08093C20080E18093C4008EE010
:101E3000B9D0259A86E020E33CEF91E0309385000D
:101E40002093840096BBB09BFECF1D9AA89581502D
:101E5000A9F786E593D0EE24FF24B3E0AB2EBB2494
:101E6000B394A5E0DA2EF1E1CF2E90D0813471F455
:101E70008DD0082F9DD0023811F482E005C00138C2
:101E800011F486E001C083E079D075C0823411F48A
:101E900084E103C0853419F485E092D06CC08535A7
:101EA00079F474D0E82EFF2471D0082F10E0102FA1
:101EB00000270E291F29000F111F7AD078015BC05F
:101EC000863521F484E07CD080E0DECF843609F0D2
:101ED00035C05CD05BD0182F59D0082FC0E0D1E0BE
:101EE00055D089931C17E1F763D0053409F4FFCF6F
:101EF000F701A7BEE89507B600FCFDCFA701A0E05B
:101F0000B1E02C9130E011968C91119790E0982FD0
:101F10008827822B932B1296FA010C01B7BEE89505
:101F200011244E5F5F4F1A1761F7F701D7BEE8958E
:101F300007B600FCFDCFC7BEE8951DC0843769F425
:101F400025D024D0082F22D033D0E701FE0185917F
:101F5000EF0114D00150D1F70EC0853739F428D0E5
:101F60008EE10CD083E90AD08FE08ECF813511F459
:101F700088E018D01DD080E101D077CF982F8091D4
:101F8000C00085FFFCCF9093C60008958091C000EB
:101F900087FFFCCF8091C00084FD01C0A89580918F
:101FA000C6000895E0E6F0E098E19083808308950C
:101FB000EDDF803219F088E0F5DFFFCF84E1DECF7E
:101FC0001F93182FE3DF1150E9F7F2DF1F910895F7
:0C1FD000282E80E0E7DFE0E0FF27099406
:021FFE000206D9
:0400000300001E00DB
:00000001FF
