:103E0000112494B714BE892F8D7011F0892FDBD047
:103E100085E08093810082E08093C00088E18093F8
:103E2000C10086E08093C20080E18093C4008EE0F0
:103E3000B4D0259A86E020E33CEF91E030938500F2
:103E40002093840096BBB09BFECF1D9AA89581500D
:103E5000A9F786E58ED0EE24FF24A3E0CA2EBB246A
:103E6000B394F5E0DF2E8DD0813469F48AD0082F29
:103E70009AD0023811F482E004C0013809F46FC00E
:103E800083E077D073C0823411F484E103C08534B9
:103E900019F485E090D06AC0853579F472D0E82EA7
:103EA000FF246FD0082F10E0102F00270E291F29A4
:103EB000000F111F78D0780159C0863521F484E0B5
:103EC0007AD080E0DECF843609F033C05AD059D0A2
:103ED000182F57D0082FC0E0D1E053D089931C177A
:103EE000E1F761D0053409F4FFCFF701C7BEE895CB
:103EF00007B600FCFDCFA701A0E0B1E02C9130E0B7
:103F000011968C91119790E0982F8827822B932BF4
:103F10001296FA010C01B7BEE89511244E5F5F4F6F
:103F20001A1761F7F701D7BEE89507B600FCFDCF79
:103F30001DC0843769F425D024D0082F22D033D077
:103F4000E701FE018591EF0114D00150D1F70EC0B9
:103F5000853739F428D08EE10CD084E90AD086E088
:103F600090CF813511F488E018D01DD080E101D0C8
:103F70007ACF982F8091C00085FFFCCF9093C60028
:103F800008958091C00087FFFCCF8091C00084FD20
:103F900001C0A8958091C6000895E0E6F0E098E1A0
:103FA000908380830895EDDF803219F088E0F5DF9B
:103FB000FFCF84E1DECF1F93182FE3DF1150E9F725
:103FC000F2DF1F910895282E80E0E7DFE0E0FF2771
:023FD000099452
:023FFE000206B9
:0400000300003E00BB
:00000001FF
